:10000000282B0020451C0000696D0000FD1B00002E
:10001000FD1B0000FD1B0000FD1B0000FD1B000080
:10002000000000000000000000000000FD180000BB
:10003000FD1B000000000000A5180000FD1B0000D3
:100040008519000085190000851900008519000038
:100050008519000085190000851900008519000028
:100060008519000085190000851900008519000018
:100070008519000085190000851900008519000008
:1000800085190000851900008519000085190000F8
:1000900085190000851900008519000085190000E8
:1000A00085190000851900008519000085190000D8
:1000B00085190000851900008519000085190000C8
:1000C00085190000851900008519000085190000B8
:1000D00085190000851900008519000085190000A8
:1000E0008519000085190000851900008519000098
:1000F0008519000085190000851900008519000088
:100100008519000085190000851900008519000077
:100110008519000085190000851900008519000067
:100120008519000085190000851900008519000057
:100130008519000085190000851900008519000047
:100140008519000085190000851900008519000037
:04015000851900000D
:04015400FFFFFFFFAB
:100158007BB972B90029BEBF00204FF0004106E00C
:1001680008BF00281CBF6FF000414FF0FF3000F0BF
:1001780057B8ADF1080C6DE904CE002909DB002B56
:100188001ADB00F04FF8DDF804E0DDE9022304B0E3
:100198007047404261EB4101002B1BDB00F042F845
:1001A800DDF804E0DDE9022304B0404261EB4101DF
:1001B800524263EB43037047524263EB430300F040
:1001C80031F8DDF804E0DDE9022304B0404261EBD8
:1001D80041017047524263EB430300F023F8DDF816
:1001E80004E0DDE9022304B0524263EB43037047A5
:1001F80053B94AB9002908BF00281CBF4FF0FF3186
:100208004FF0FF3000F00CB8ADF1080C6DE904CEEA
:1002180000F008F8DDF804E0DDE9022304B07047D7
:10022800704700BF2DE9F04786468C460846089E71
:10023800154674461946002B40F0C1808542B2FA33
:1002480082F245D94AB1C2F1200300FA02FC954076
:1002580094402EFA03F343EA0C0C4FEA154EA8B269
:10026800230CBCFBFEF80EFB18CC08FB00F943EA94
:100278000C43994528D9EB1808F1FF3704D2994562
:1002880002D9A8F102072B44A3EB0903A4B2B3FBDC
:10029800FEFC0EFB1C330CFB00F044EA0344A042B6
:1002A80014D92C190CF1FF3304D2A04202D9ACF1B5
:1002B80002032C44241A43EA07401EB1D440002309
:1002C80034607360BDE8F0874746DDE76346F1E7D1
:1002D80092BB431B01214FEA154EAFB2200CB3FB72
:1002E800FEFC0EFB1C330CFB07F840EA0343984561
:1002F80061D9EB180CF1FF3004D2984502D9ACF162
:1003080002002B44A3EB0803A4B2B3FBFEFC0EFBD4
:100318001C330CFB07F744EA0344A7424DD92C19B8
:100328000CF1FF3304D2A74202D9ACF102032C44EA
:10033800E41B43EA0040C0E7C2F120039540944023
:1003480020FA03F12EFA03F34FEA154E9040AFB2AC
:100358000343B1FBFEFC0EFB1C10190C0CFB07F849
:1003680041EA0041884522D969180CF1FF3004D2CE
:10037800884502D9ACF102002944A1EB08019BB2DF
:10038800B1FBFEFC0EFB1C110CFB07F743EA014313
:100398009F420ED9EB180CF1FF3104D29F4202D9CB
:1003A800ACF102012B44DB1B41EA004193E76046B4
:1003B800E3E76146F7E76046A4E76346B8E78342A8
:1003C80006D916B9002108467CE7C6E900E0F9E736
:1003D800B3FA83F78FB9834201D3724508D8BEEBCD
:1003E800020460EB030301209C461EB9002169E763
:1003F8003846FAE7C6E9004CF8E7C7F1200CBB40DD
:100408000EFA07F522FA0CF42EFA0CF1BA401C4346
:1004180020FA0CF3B8404FEA144901431FFA84FE4E
:10042800B3FBF9F809FB18300B0C08FB0EFA43EA8A
:1004380000439A4540D9E31808F1FF3004D29A45A1
:1004480002D9A8F102002344A3EB0A0389B2B3FB43
:10045800F9F809FB183308FB0EFE41EA03418E4503
:100468002CD9611808F1FF3304D28E4502D9A8F1BE
:100478000203214443EA0040A1EB0E01A0FB0298CD
:100488004145CE46434602D306D14D4504D20138F4
:10049800B9EB020E68EB0403002EA7D0B5EB0E02F1
:1004A80061EB030101FA0CFC22FA07F3F9404CEA6C
:1004B8000303C6E9003199E74046C5E74346D9E753
:1004C80038B5044611461A46042909D8032949D2E1
:1004D80019B9198807F039FD01E06FF0850038BDBA
:1004E800072942D11D68E917480140EAD5606B0128
:1004F8005B1B60EB0100400240EAD3505B025B19D2
:1005080041EB00004FEA801E4EEA936E4FEA831CCF
:10051800BCEB030C6EEB000E1CEB050C41EB0E0163
:1005280052681CEB020341EBE271012B71F10002EE
:100538000DDB114818180EA3D3E9002341F100017F
:10054800FFF706FE0146204602F0A4FBC7E70B486A
:10055800181807A3D3E9002361F10001FFF7F8FD9C
:100568000146F0E702F026FCB9E76FF08500B6E730
:100578003AA39500000000009DD14A00632EB5FF04
:10058800F0B51C46059F069E00F01F0C4009012887
:1005980034D0274D0CF1800355F8233081B3012066
:1005A80082B34FF0020E40EA0E0074B34FF00C0E07
:1005B80040EA0E0067B34FF4706E40EA0E0056B37F
:1005C8004FF4403E40EA0E0023EA000031B30B78B6
:1005D80032B312785200134324B3227892001343A3
:1005E80017B33A781202134306B33278120413434E
:1005F80003430CF1800C45F82C30F0BD0D4DC9E7D4
:100608000020CDE74FF0000ECDE74FF0000ECFE70A
:100618004FF0000ED1E74FF0000ED3E70023D7E7E5
:100628000022D8E70022DAE70022DCE70022DEE732
:10063800002584500028845038B50446006870B1FD
:1006480008F077FD88B9236819680F4805F057FF47
:100658006FF00A050D4805F052FF284638BD0C48D2
:1006680005F04DFF6FF00105F7E70021204605F082
:10067800F1FE05460028F0D022790146054805F02C
:100688003EFF002DE9DAE5E7C49B00000C9C000062
:10069800A89B0000E49B000070B50446006878B190
:1006A8000E4608F046FD88B923681968124805F017
:1006B80026FF6FF00A05114805F021FF284670BD96
:1006C8000F4805F01CFF6FF00105F7E74FF4003104
:1006D800204605F0BFFE054638B122790146094893
:1006E80005F00DFF002DE9DAE5E7324621792068AB
:1006F80005F0CBFE0546F5E7C49B0000509C0000C2
:10070800389C0000E49B000070B584B0404808F0B5
:1007180010FD50B93E4B19683E4805F0F0FE4FF009
:10072800FF304FF0FF3105F0D1FA3B4808F001FDEA
:1007380050B9394B1968374805F0E1FE4FF0FF30E2
:100748004FF0FF3105F0C2FA344A3549354805F013
:10075800D6FE354805F0D3FE3448FFF76DFF00217B
:100768003348FFF799FF00213248FFF795FF002132
:100778003148FFF791FF00213048FFF78DFF002136
:100788002F48FFF789FF00212E48FFF785FF00213A
:100798002D48FFF781FF00212C48FFF77DFF00213E
:1007A8002B48FFF779FF00212A48FFF775FF002142
:1007B8002948FFF771FF0321262005F013FE1E21AB
:1007C800264805F09CFE124E0021304600F0AEFE91
:1007D8004FF4702400252046294605F077FA0121B8
:1007E800304600F0A3FE1E4805F089FE0020019067
:1007F8000290039006238DF8043001A900F072FDE1
:100808002046294605F062FA164805F078FEFEE70C
:1008180090980000709C0000AC980000889C000034
:10082800909C0000A49C0000BC9C0000709D0000EF
:10083800A89D0000A09D0000989D0000909D0000CC
:10084800889D0000809D0000789D0000689D000044
:10085800609D0000589D0000509D0000DC9C000039
:10086800F89C0000349D000008B5024B1B689847AF
:1008780008BD00BF00000020014B1860704700BF92
:100888000000002000B583B002460B46002100910D
:10089800024800F01DF903B05DF804FB7108000080
:1008A8002DE9F04383B0044608461546238B13F020
:1008B800080F05D103F0070600230093019355E0C4
:1008C800012909D043F02003238385F31188BFF35E
:1008D8006F8F03B0BDE8F08343F010032383F4E780
:1008E800204605F044FE43E0D4F814904A46694691
:1008F800204605F055FE4FF00008238B03F007074C
:10090800B74269D0A268002A66D0012243F00803E2
:10091800238385F31188BFF36F8F002A64D1009B6E
:100928002BB14B463A466946204605F0B2FEB8F16F
:10093800000F02D034492046C0474FF02003EFF3A0
:10094800118583F31288BFF36F8F238B23F008037D
:100958002383238B13F0100F4CD023F01003238331
:100968000120268B06F007060028AED00228B7D053
:100978000028AAD0013804282AD801A353F820F067
:10098800F1080000D90900009D090000B109000024
:10099800C50900002369D3F800800621204605F028
:1009A800BCFD4FF00009A8E72369D3F804800421AF
:1009B800204605F0B2FD4FF000099EE72369D3F801
:1009C80008800521204605F0A8FD4FF0000994E7AE
:1009D8004FF00008C14690E7009A0AB1002295E757
:1009E800B8F1000F92D1B4E74A463946204605F0DF
:1009F8009CFD94E713F0200F04D023F020032383F9
:100A08000220AEE70020ACE7C9660000844608462D
:100A1800012226E09CF8003043F004038CF80030F3
:100A2800F2B101301CE09CF8003043F008038CF868
:100A38000030F5E79CF8003043F010038CF80030E4
:100A4800EEE79CF8003043F020038CF80030E7E72D
:100A58009CF8003043F040038CF80030E0E70022B7
:100A680042B30378203B102BF9D801A151F823F0A9
:100A78003D0A0000670A0000670A00004B0A0000F0
:100A8800670A0000670A0000670A0000670A00009A
:100A9800670A0000670A0000670A00002F0A0000C2
:100AA800670A00001D0A0000670A0000670A0000C4
:100AB800590A00009CF8003003F04403442B00D08E
:100AC80070479CF800306FF386138CF80030F7E716
:100AD8002DE9F04F91B006460D4691460393002448
:100AE80099F80000002800F0B982252808D009F1FB
:100AF80001092946B0470028C0F2B1820134EFE766
:100B08000023049305930693079308930993494692
:100B180006A805F0D7FF02909DF8193013F0010FD1
:100B280000F09780039B1A1D03921F68002FC0F2E4
:100B380088809DF8193013F0040F00F09C80039B07
:100B48001A1D0392D3F800A0BAF1000FC0F28A80F0
:100B58000023079308939DF81A3003F007039DF8C4
:100B68001910C1F3C301012B00F08E80022B00F095
:100B7800D380042B00F02481032B00F03B819DF8E7
:100B8800188018F0030B40F03B819DF81B30253B83
:100B9800532B00F2CA81DFE813F04001C801C801F5
:100BA800C801C801C801C801C801C801C801C801F5
:100BB800C801C801C801C801C801C801C801C801E5
:100BC800C801C801C801C801C801C801C801C801D5
:100BD800C801C801C801C801C801C801C801C801C5
:100BE800C801C801C801C801C801C801C801C801B5
:100BF800C801C801C801C801C801C801C801C801A5
:100C08008101C801C801C801C801C801C801C801DB
:100C1800C801C801C8015E016701C801C801C8014F
:100C2800C8016701C801C801C801C801BD01810127
:100C3800A101C801C8014D01C8018101C801C8014D
:100C480081019DF8183043F004038DF818307F4275
:100C58006FE79DF91830002B02DB4FF0FF3768E78C
:100C6800079F66E79DF819306FF341038DF8193037
:100C78004FF0FF3A6CE713F0020F02D0DDF820A026
:100C880066E74FF0FF3A63E7CB1E042B04D8DFE892
:100C980003F00B1D29353500039B1A1D03921B68B1
:100CA800DA170493059206E0039B1A1D03921B684A
:100CB800DA1704930592012928D002297FF45FAF3F
:100CC800BDF91030DA170493059258E7039B0733F0
:100CD80023F0070303F108020392D3E90023CDE9C7
:100CE8000423E8E7039B073323F0070303F1080213
:100CF8000392D3E90023CDE90423DCE7039B1A1D03
:100D080003921B68DA1704930592D4E79DF9103013
:100D1800DA170493059232E7CB1E042B04D8DFE8D8
:100D280003F00B1F35414100039B1A1D03921B68FA
:100D38000493002305931EE09DF81B30632B07D016
:100D4800039B1A1D03921B6804930023059312E06A
:100D5800039B1A1D03921B680493002305930AE062
:100D6800039B073323F0070303F108020392D3E937
:100D78000023CDE9042301291CD002297FF4FFAE0A
:100D8800BDF81030049300230593F8E6039B07335E
:100D980023F0070303F108020392D3E90023CDE906
:100DA8000423E8E7039B1A1D03921B68049300239E
:100DB8000593E0E79DF81030049300230593DEE6E1
:100DC80008290BD0039B073323F0070303F108021C
:100DD8000392D3E90023CDE90423D0E6039B07332C
:100DE80023F0070303F108020392D3E90023CDE9B6
:100DF8000423C4E6039B1A1D03921B680493BEE6F2
:100E0800029F3B464A462946304605F001FF002826
:100E1800C0F225810444B94662E629462520B04738
:100E28000028C0F21C810134D8460DF13E0A4FF06B
:100E380000097FE0DDF81090BAF1000F07DB51469A
:100E4800484606F03EF809EB000AD84672E04846E4
:100E580006F02EF8F7E7049B8DF82830D8460DF1F8
:100E6800290A0DF1280965E018F0080F05D118F0D6
:100E7800100804D04FF0200801E04FF02B08049A26
:100E8800059B002B02DB0492059308E0524263EBBA
:100E98004303049205934FF02D0800E0D8460DF166
:100EA8003E0300930AAB06AADDE9040105F041FE02
:100EB8008146BAF1000F6CDB0DF13E03A3EB090389
:100EC8009DF818206FF386128DF818209A4563D97B
:100ED800AAEB030307930DF13E0A2BE0049828B907
:100EE800D846DFF880A1AAF1050923E00DF13E03F9
:100EF80000930AAB06AA002105F01BFE81469DF867
:100F08001A3043F010038DF81A3078238DF81B300F
:100F1800D846CEE72246049906A805F05AFED846D8
:100F28000DF13E0A4FF0000904E0D8460DF13E0AE3
:100F38004FF00009B9F1000F00F08D80AAEB09030A
:100F4800B8F1000F00D001339DF81A2012F0100FED
:100F580025D0023307990B4412F0400F01D0089AAC
:100F68001344002F31DDFF1A9DF8183013F0040FD9
:100F78002BD113F0400F17D0B8F1000F17D0294626
:100F88004046B04700286ADB0134D8464FF0300BA2
:100F98000FE00DF13E0ACDE70DF13E0ACAE712F067
:100FA800080FD7D00133D5E74FF0200B01E04FF001
:100FB800300B3B465F1E002B07DD29465846B047DD
:100FC80000284CDB01343B46F4E7B8F1000F05D0AC
:100FD80029464046B047002841DB01349DF81A30C5
:100FE800C3F30012C3F3C0031A4305D029463020C7
:100FF800B047002833DB01349DF81A3013F0100F86
:1010080006D029469DF81B00B047002827DB01348D
:10101800079B03F1FF38002B07DD29463020B04736
:1010280000281CDB01344346F3E753464A46294669
:10103800304605F0EDFD002811DB0444002F07DDE4
:1010480029462020B047002809DB0134013FF5E795
:10105800DDF8089044E5DDF8089041E5204611B038
:10106800BDE8F08FB59D000008B5044605F0EAFD1F
:101078004FF02002EFF3118382F31288BFF36F8FD2
:10108800204605F09FFE034805F039FA00F084FB7E
:10109800FCE700BFB89D000068B108B5064A074BD9
:1010A8001B680749A1FB03139B0C00FB03F042F0EC
:1010B8000103984708BD7047A09B0000F800002076
:1010C80083DE1B4300B54FF02003EFF3118C83F34D
:1010D8001288BFF36F8F01201D4BC3F800051D490F
:1010E8000223C1F8D0361C4AD2F8003223F0E0437C
:1010F80043F04053C2F80032D2F8043223F0E04300
:1011080043F04053C2F804324FF47F03D3F8202C45
:1011180002F01F03C2F34412083A03EB430E03EB39
:101128008E0303EB021303F53E739B0943F48073AC
:10113800C1F8C435C1F80407C1F80409C1F8000BA7
:101148008CF31188BFF36F8F00205DF804FB00BF9C
:10115800001000500040005000258450062800D0A0
:10116800704708B5014805F073FD00BF0040005006
:1011780002F044BC70B505464FF02003EFF311862A
:1011880083F31288BFF36F8F0E4B1C680DE0A268C3
:101198003AB10D4B1B7D03EB43030C4911F82300B7
:1011A80090472346246804B123B12CB1002DEED01A
:1011B8006268EDE71C46F8E786F31188BFF36F8F86
:1011C80070BD00BF1C090020C80F002010090020B6
:1011D80008B5064B23B14178007805F040FD08BDFD
:1011E800002383F31188BFF36F8FF8E7676C000063
:1011F80010B582B001A803F0B7FD1B4B00221A609E
:10120800C0EBC00083001C3B019C1C4400E01C3C5C
:10121800019B9C4225D3204605F065FD0028F6D1A8
:10122800204605F074FD0028F1D1204605F065FD43
:101238000028ECD10021204600F078F910F1580F71
:10124800E5D010F1860FE2D010F1780FDFD000283A
:1012580008DB054A1368054941F823400133136048
:10126800D5E7002002B010BD0009002004020020CC
:1012780010B5084B1C68013C06E00121064B53F8E9
:10128800240000F053F9013C002CF6DA014B00224F
:101298001A6010BD000900200402002070B50E4B32
:1012A8001C7D21460D4805F0E0FC00B970BD6500C5
:1012B80004EB44000A4E06EB8000FFF789FF00208C
:1012C800FFF758FF2B19990006EB83030022725091
:1012D8005A609A60EAE700BFC80F0020240900207E
:1012E800100900204FF02003EFF3118C83F31288CC
:1012F800BFF36F8F00EB4000054B03EB800307C97A
:1013080083E807008CF31188BFF36F8F01207047C3
:1013180004090020F8B50546524B1C7D4FF0200308
:10132800EFF3118683F31288BFF36F8F04EB440247
:101338004D4B13F82230002B54D04C4B03EB820C4E
:10134800494F4FEA820E07EB820393E807008CE8C7
:101358000700002307F80E3086F31188BFF36F8F5C
:1013680004EB4403414A12F82330002B77D0B5F13F
:10137800FF3F46D104EB44033C4A12F82330012BCB
:1013880009D03B4BD3E8EF2F013AC3E8E12F0029FE
:10139800F8D1002A4BD004F097F90120FFF7EAFEB4
:1013A8002146344805F079FC334B5BB12F4A04EBF6
:1013B800440302EB830304EB4404597812F8240035
:1013C800FFF7CCFE2A4BD3E8EF2F511CC3E8E01FF0
:1013D8000028F8D1002A3FD0FFF760FF04F06EFB29
:1013E8000120F8BD0146204600F04CF80028B3D093
:1013F80004EB44011D4B03EB810307C883E8070096
:10140800AAE704EB4402194B03EB82039868410CEA
:10141800C0031A4BC0181A4A4FF0000341F10001EB
:10142800FEF7E6FE0121281A08F08AF9A2E7FFF77D
:10143800DFFE0028AFD0FFF71BFF04EB4404A40035
:1014480000200A4B18550A4BD3E8EF1F0131C3E8B7
:10145800E21F002AC5D0F7E7FFF70AFFBCE7002024
:10146800BFE700BFC80F00200409002010090020B2
:101478000400002024090020651100003F420F00ED
:1014880040420F002DE9F04182B00E4601A900F05C
:1014980045F8441E24B207E0B6F1FF3F33D080443C
:1014A800B04530D9013C24B2002C2BDB019B04EB66
:1014B800440203EB8205697813F8220005F0FDFB6E
:1014C8000028EFD16868410CC003114FC019114AB8
:1014D8004FF0000341F10001FEF78AFE8046AB6839
:1014E800590CDB03D8190B4A4FF0000341F10001F6
:1014F800FEF77EFE084B1B68B3F1FF3FCCD083425A
:10150800CAD8CFE70025284602B0BDE8F08100BF61
:101518003F420F0040420F000800002008B9024B6C
:101528000B600020704700BFE49D0000F8B5876994
:10153800AFB305460C4605F0EAFB98BB3B7A1E4A5A
:10154800165DB34231D01D4A125D934230D1FB681B
:10155800214628469847002804DB3E72022C13D007
:101568000020F8BD022C0DD0032CFAD110F1860F03
:1015780008D03B1DD3E8EF1F41F00201C3E8E21F8A
:10158800002AF7D13E72ECE73B1DD3E8EF1F21F0AC
:101598000201C3E8E21F002AF7D10020E1E76FF05B
:1015A8005700DEE74FF0FF30DBE76FF07700D8E752
:1015B8006FF08500D5E700BFE89D0000E49D0000BE
:1015C80008B5024804F0E4FD08BD00BFEC9D00002A
:1015D80008B308B54368042B07D0082B12D0FBB119
:1015E800006803F02BFE002014E003680022D3E813
:1015F800EF1F012903D1C3E8E02F0028F7D10DD14F
:10160800104607E003681B7803F580730020054A3D
:1016180042F8230008BD6FF4E04070470248F9E73C
:101628000248F7E700000350E98FFFFFEA8FFFFF4A
:1016380070B308B54368042B04D0082B0FD0C3B986
:1016480015480BE003680122D3E8EF1F002903D1F6
:10165800C3E8E02F0028F7D116D1002008BD0368A1
:101668001B7803F580730D4A52F8233073B90020B4
:10167800F4E700684FF0FF324FF0FF3303F060FDEE
:101688000028EBD00648E9E70548E7E70448E5E71E
:101698006FF4E040704700BFEA8FFFFF000003507F
:1016A800E98FFFFF10B5044688B16368042B0DD09D
:1016B800082B0BD053B113F0020F0DD02146094867
:1016C80007F08BFD002323600023636010BD064BE9
:1016D8005B6806489847E8E714220021206805F06F
:1016E80029FCF1E7280E002084010020F49D000069
:1016F80010B5044678B16368042B0BD0082B09D0C9
:101708000BB9236863B1206807F0F4FD636843F000
:101718000103636010BD0F4B5B680F489847EAE709
:101728004FF0FF324FF0FF3321460C4803F02EFCF8
:1017380008B923681BB9074B5B6809489847142206
:101748000021206805F0F6FB636843F0020363603C
:10175800D9E700BF84010020F49D0000280E002076
:101768001C9E000008B5402314220449044807F0D1
:1017780026FD0449044804F06DFD08BD2809002031
:10178800280E00204C9E0000609E00000149102297
:101798000A60704710ED00E072B6404080F311888F
:1017A800BFF36F8FBFF34F8F30BF62B6BFF36F8F3A
:1017B800704700BF72B6494081F3118820BF80F39B
:1017C800118862B6704700BF002807DB00F01F02CF
:1017D800400901239340024A42F82030704700BF75
:1017E80000E100E0002808DB4901C9B200F16040CF
:1017F80000F5614080F80013704700F00F004901C0
:10180800C9B2014B1954704714ED00E04209054B69
:1018180053F8222000F01F00012303FA00F01040C3
:10182800704700BF00E100E030BFFFF7FDBF00BF19
:1018380008B50B4B0B4A22F07F029A60BFF34F8F1B
:10184800BFF36F8FD3F8882022F47002C3F8882082
:1018580003F0EAFA04F0B6FA00F0D6F903F040FB18
:1018680000ED00E000000000094A93685867094944
:101878000968996708494B6843F080534B60002317
:1018880083F31188BFF36F8F9368986F704700BF19
:10189800C80F0020C4A1000000ED00E013498A68C9
:1018A8004FF030001044EFF3098C80E8F01F20203F
:1018B80080F31288BFF36F8F0D4F4FF00066CA692F
:1018C8008A603E60506F0023536780F3118802F1ED
:1018D800300090E8F01F8CF3098802F1000004B58D
:1018E80005F044FABDE8044070470000C80F002026
:1018F80004ED00E01EF0040F0CBFEFF30880EFF3D7
:101908000980816911F8021C0229FFD001B505F090
:1019180010FA01BD10B4A2F120040D4942F8081CC8
:1019280021F0010142F8081C42F8203C019B42F8D2
:101938001C3C029B42F8183C039B42F8143C4FF0B5
:10194800807342F8043C04650023436710BC704769
:10195800E1670000084B9860436E83F30B881046DC
:1019680081F30988002163B681F31188BFF36F8F73
:101978000022002304F030FFC80F002001B572B622
:101988000B4A906900281EBF0021916107F096FC60
:1019980062B6EFF30580A0F110004FEAC0000549D8
:1019A800014409C99847BDE80140034908470000B8
:1019B800C80F00201C990000C5190000044B996845
:1019C800D869884203D003494FF080520A607047B3
:1019D800C80F002004ED00E010B51446184B9A6AB1
:1019E8009A6A9B6A13F0020F0BD0154B5A6B9B6ACD
:1019F80013F0800F05D021B1114A936A23F08003B8
:101A080093620F4B9A6A9A6A9B6A13F0100F01D17E
:101A18000B4B9B6A0A4B9B6A13F0200F04D0084AB1
:101A2800536A23F400535362054A936A43F0FF0351
:101A38009362012105F09EF92070002010BD00BFBF
:101A480000ED00E010B51446124B9A6A9A6A9B6A38
:101A580013F4007F0BD00F4B9A6B9B6A13F4004F63
:101A680005D021B10B4A936A23F400439362094BD2
:101A78009A6A9B6A13F4807F01D1064B9B6A054AD8
:101A8800936A43F47F439362012105F073F9207050
:101A9800002010BD00ED00E00A4B9A6A9A6A986A25
:101AA80010F480100BD1074B9A6A9A6A9A6A9A6A5C
:101AB8009A6A6FEA02426FEA12429A6270470220FB
:101AC800F1E700BF00ED00E008B5844600230B7085
:101AD8001C4BD86A10F0020031D1DB6A002B2FDBD7
:101AE800184BD86A10F080402AD0DCF8183033F848
:101AF800022C4DF602739A4212D0124B9B6A13F0D5
:101B0800FF0F10D10F4B986A10F47F4011D10D4B85
:101B18009B6AB3F5803F13D36046FFF7BDFF0FE024
:101B2800DCF800000CE00A4601216046FFF754FF8C
:101B380006E00A4601216046FFF784FF00E0002026
:101B480008BD00BF00ED00E070B58AB00C46224B1E
:101B58005968C1F30801002383F31188BFF36F8F1D
:101B680002F07F43B3F17F4F15D102F00C03082B2D
:101B780014D012F0080F0BD000260DF127022046D2
:101B880005F0FDF805469DF8273053B10AB070BD41
:101B980004460126F1E700263446EEE700263446DF
:101BA800EBE72022214601A805F095F94EB1089BE4
:101BB800C3F308025AB96FEA53236FEA4323089321
:101BC80005E0089B23F4FF7323F00103089301A9A0
:101BD800284605F0AAF8D9E700ED00E0044B5A6959
:101BE80042F010025A615A6942F480625A617047A1
:101BF80000ED00E0EFF30880EFF3098101B57246CC
:101C0800FFF7A2FF01BD00BF002207E003F1604318
:101C180003F56143202183F800130132442A09DCCB
:101C280053B2002BF2DA03F00F03034919442023BF
:101C38000B76F2E7704700BFFCEC00E0002080F371
:101C48001488BFF36F8F002080F30A8880F30B8815
:101C5800FFF78EFA00200E490860BFF34F8F0D483A
:101C680080F3088800F040F8202080F311880A48A3
:101C78004FF40061401880F30988EFF314800221C3
:101C8800084380F31488BFF36F8FFFF7D1FD00007E
:101C980094ED00E0282B0020E8110020BFF34F8FBF
:101CA8000549CA6802F4E062044B1343CB60BFF3F2
:101CB8004F8F00BFFDE700BF00ED00E00400FA050C
:101CC800084BD3F89000C0F30720002306E0054A2C
:101CD800C2F898300021C2F8A01001338342F6DB25
:101CE800704700BF00ED00E010B572B6002484F321
:101CF8001388FFF7E5FF234608E003F120010E4AA9
:101D08004FF0FF3042F821000133DBB20F2BF4D93A
:101D1800002308E003F16001074A4FF0FF3042F862
:101D280021000133DBB20F2BF4D962B6BFF34F8F1A
:101D3800BFF36F8F10BD00BF00E100E008B50A4B8C
:101D48009B68834202D003F0F1FF08BDEFF30583DF
:101D5800002BF8D0054B5A6842F080525A605A6AF4
:101D680022F400425A62EEE7C80F002000ED00E0BE
:101D780010B584B00A4C23460A4A01210A4805F0E6
:101D88008FF80023019302930393084B0193E41AFD
:101D98000294012101A805F087F804B010BD00BF26
:101DA8000000072000000020709E00006002002054
:101DB800024B034AC3F8C020704700BF00ED00E0A3
:101DC800AAFF4400034BC3F89800C3F89C10C3F85B
:101DD800A020704700ED00E00E4BC3F89800C3F850
:101DE8009800D3F89C000A7A60F304020A72D3F8C8
:101DF800A020C2F34202087A62F347100872D3F8AF
:101E08009C2022F01F020A60D3F8A03023F01F03A1
:101E1800CB60704700ED00E02DE9F04F87B08146B8
:101E2800009101931446002734E0D84565D129462E
:101E3800C0B205F005F82CE0584BC3F89860D3F809
:101E48009C1001F01F0122F01F020A43C3F89C20D6
:101E58002946E0B204F0F4FF044610F1160F00F032
:101E68009680013415E0013B4C49C1F89860D1F8DF
:101E7800A02002F01F0223F01F031343C1F8A03073
:101E88002946E0B204F0DCFF044610F1160F7ED0BC
:101E980001340137009B9F4279DA07EB47054FEA87
:101EA800850A09EB85056E68002EF2D0019B23B1E7
:101EB800284604F0A8FF002865D0314659F80A00E2
:101EC80004F0DDFF064610F1160F5FD0A04262DA7B
:101ED800324BC3F89800D3F89C1021F01F01C3F8C7
:101EE8009800D3F8A03043F01F0859F80A306A6800
:101EF8001A4402F1FF3B994297D099429CD0D845A9
:101F0800B1D0013B2549C1F89860D1F8A02002F072
:101F18001F0223F01F031343C1F8A0302946E0B283
:101F280004F08EFF044610F1160F30D001301B4B21
:101F3800C3F89860D3F89C109DF8102061F3040250
:101F48008DF81020D3F8A030C3F34203D2B263F364
:101F580047128DF8102059F80A306A681344029322
:101F680023F01F03A8EB0B084344013B23F01F0396
:101F7800059302A9C0B204F058FF044610F1160FE9
:101F880005D0013485E76FF0150400E004462046CB
:101F980007B0BDE8F08F6FF01504F8E700ED00E03A
:101FA80010B5034C01232278FFF736FF207010BDCF
:101FB800E011002070B505460E46002400E001340B
:101FC800A6421EDD04EB44039A0005EB830359681F
:101FD8000029F4D0A85804F052FF04EB84030B4AFC
:101FE80042F8230010F1160F0CD0094B1B789842C9
:101FF80009DA04EB840302EB83010431FFF7ECFEFA
:10200800DDE7002070BD6FF01500FBE7440E0020EF
:10201800E0110020044B0522C3F89420BFF34F8F32
:10202800BFF36F8F704700BF00ED00E0BFF35F8F15
:10203800024B0022C3F89420704700BF00ED00E077
:1020480038B50E4B1D68082D15D8FFF7EFFFFFF7C1
:10205800AFFE002407E0094B596801EB0411204644
:1020680004F0BDFE0134A542F5D8054B1D70FFF7FD
:10207800D1FF002038BD4FF0FF30FBE77C9E000009
:10208800E0110020014B1860704700BF2C000020B1
:1020980000487047E40E0020034BC01A8010034B21
:1020A80003FB00F0704700BF6C0E0020B76DDBB675
:1020B80038B505460C46FFF7EFFF014640220348B6
:1020C80005F008F801462846A04738BD3C980000AE
:1020D80030B583B005460C46FFF7DEFF01464023C6
:1020E80000932346054A064805F00EF8011E01DB59
:1020F80003B030BD2846A047FAE700BF5971000079
:102108003C98000008B5052815D8DFE800F0031A48
:102118001414151000210D4804F067FF836813F0AC
:10212800070F08D10021094804F0C2FF03E002218B
:10213800064804F0BDFF08BD0321044804F0B8FFB9
:10214800F9E70121014804F0B3FFF4E73C980000E7
:1021580010B582B04FF02003EFF3118483F3128897
:10216800BFF36F8F144A136843F00201116013F034
:10217800010F09D1002384F31188BFF36F8FB3B91E
:1021880004F0EEFF02B010BD0DF1070201214FF07F
:10219800502004F0F0FE9DF80730012B01D00023F9
:1021A800E9E7FFF775FF04F070FF0123E3E700217B
:1021B800024804F07DFFE5E70C0F00203C98000082
:1021C80008B5084BD3E8EF2F22F00201C3E8E01F5F
:1021D8000028F7D112F0010F00D008BD04F0D4FF99
:1021E800FBE700BF0C0F002070B582B00546012840
:1021F80007D14FF05023D3F81C3403F00303022B0C
:1022080037D007F021F8044610B92B4B1B787BB95F
:102218004FF02003EFF3118683F31288BFF36F8F1B
:10222800012494B94FF050230222C3F808230CE08C
:102238000026F6E7FCB13046FFF7BCFA4FF0502312
:10224800D3F81835DBB2012B19D00DF107020021A4
:102258004FF0502004F08FFE0028EBD09DF8073097
:10226800022B01D0012DE5D104B386F31188BFF309
:102278006F8F02B070BD012004F09AFFDEE74FF0C7
:102288005023D3F80431002BDFD04FF05023002225
:10229800C3F80421D3F804210222C3F81825074AF9
:1022A8002021C2F8801101229A60CEE74FF0502316
:1022B8000222C3F80423DCE7E311002000E100E078
:1022C80000B585B0CDF800D0CDF804D00023029336
:1022D800012303936B46074A04F032FF002805DB0D
:1022E8004FF480420023684603F008F805B05DF813
:1022F80004FB00BFE571000070B50646002201210D
:10230800052004F021FD114801F06AFC104B9842A9
:1023180019D106F0B8FD0024032C12D82146304606
:1023280004F063FE05462146304604F069FE09497B
:1023380004F0D4F9002805DB0123AB601C44E4B2A7
:10234800EAE7002070BD6FF00400FBE70D210000F4
:102358000000AD0BB49E000010B504460E4B0121E1
:10236800D3E8EF2FC3E8E01F0028F9D11AB1631EA4
:10237800012B0DD910BD094804F042FE084900237D
:102388004B608B60CB6001238B6004F0C4F9EEE7EF
:102398002046FFF729FFEDE7680E00203C98000073
:1023A800580E002010B504460A2807D0074B1868B5
:1023B800E1B283685B689847204610BD034B1868F4
:1023C80083685B680D219847F0E700BF100F002075
:1023D80010B5044C2046FFF755FE2046FEF74CFA90
:1023E80010BD00BFAD23000008B50648064B1860B5
:1023F80006F09FFE18B1FFF7EBFF002008BD6FF055
:102408001200FBE790980000100F002028B1012867
:1024180001D103487047002070470248704700BF49
:102428005898000074980000F0B585B00E4619461B
:1024380043681B7B06F01F0545EA4315B2F5001FEC
:1024480022D007461446002301930293104604F055
:102458009AFF8DF804007B689968F14011F0010F2C
:1024680002D1B4F1A07F14D0002301AA194628464E
:1024780001F0A2FE1A4B98422FD10121284601F003
:10248800FFFF002005B0F0BD284602F02BF8002021
:10249800F8E705F01F036A09012A12D0114A8033B0
:1024A80052F8233013F0010FDED10DF10F01284649
:1024B80001F08AFF0C4B984205D00DF10F030293EF
:1024C800D2E70A4AEBE70DF10F0001F0D1FF044B08
:1024D8009842F2D06FF00B00D4E76FF01500D1E707
:1024E8000000AD0B002584500400AD0B002884507B
:1024F8002DE9F04186B00E461446D0F8048098F8CD
:102508000C3001F01F0545EA43150DF11701284667
:1025180001F05AFF074614F4403F39D000210391D7
:1025280004910B4603AA284601F046FE324B984216
:102538005FD19F423CD014F4003F47D00DF1030116
:10254800204604F0ADFE074648BB9DF803308DF8E1
:10255800043014F4803F0CBF012300238DF80530AC
:10256800204604F0E0FE8DF8060014F4002F24D075
:10257800D8F804200123B3409360002201A928461B
:1025880001F0B0FE1C4B984209D06FF0150706E029
:10259800284601F0C9FF184B9F4204D0002738464F
:1025A80006B0BDE8F0819DF8170001F059FFF5E786
:1025B8009DF8170001F054FFBDE714F4802FDCD01C
:1025C800D8F804200123B340D360D6E7204604F0AE
:1025D800AAFE8DF8080000231A4602A9284601F031
:1025E800EBFD054B984201D10027D8E76FF015079E
:1025F800D5E76FF01507D2E70000AD0B08B501F07D
:1026080025FF08B1002008BD01F0F6FE084B9842EE
:102618000AD10021074801F0D1FE002205210D2032
:1026280004F092FB0020EEE76FF00400EBE700BF38
:102638000000AD0BC773000070B504464568066915
:10264800686806F076FD08B9002070BD204604F0E1
:10265800B6FF0028F9D12B7D002BF6D0E86806F0EC
:1026680068FD08B3B463124906F1240006F0B1FE10
:102678004FF4803105F10C0004F00FFF0028E4D17D
:10268800E868297C4FF0B86204F0CBFE0028DCD162
:102698002A7C01239340074AF261336206F118014C
:1026A800E86804F005FFD0E76FF01500CDE700BF3C
:1026B8003D770000FD78000070B582B045682B6852
:1026C800D3F80845D3F80C650DF1070104F002FBB7
:1026D8009DF807306BB13146204602F0AFFA044648
:1026E8009DF807304BB10A4B9C420ED1002002B036
:1026F80070BD284602F06AFAEDE70021286A05F065
:1027080026F9284602F052FAEDE76FF00F00EEE7DF
:102718000000AD0B2DE9F04F8FB0824688469146F8
:1027280001690C46049142680292486A0190128B32
:102738000692002509950A950B950C950D958DF82F
:1027480025304FF0FF324FF0FF33084602F0D6FD38
:1027580004F11003184605930022002302F0CEFD71
:102768002E462C460395CDF81CA044E0002C6AD0D8
:102778004FF0000A20466A68A118DDF818C06145C4
:1027880000F2B48013F0010F56D06B6823449CB25A
:10279800BAF1000F2ED1002C71D158F80B300C93E0
:1027A8006B680A932B7A03F001028DF8242013F04A
:1027B800020F68D0002209A9029802F025FA514BAD
:1027C800984262D14FF480420023059802F096FDAA
:1027D8000390002864D1049B1A6A4A4B9A4240F03D
:1027E8008D802B7A13F0010F03D00C9B019A9A422B
:1027F8005FD000243E464E4571D206EB46054FEAAF
:10280800850B08EB85052B7A13F0080F64D1771C2C
:102818004F45ABD213F0020FA8D107EB470208EBE4
:102828008202127A12F0040FA0D15A4012F0010F5E
:102838009CD14FF0010A9DE758F80B10019B1844F2
:1028480004F049FBA1E713F0010F12D158F80B105F
:1028580001F06043B3F1005F0ED06A68029B5B8BA6
:102868009A4247D8019804F036FBAC884FF0000A2A
:102878008EE74FF0000A8BE74FF0000A88E7019BCC
:102888000C930A948EE7202295E70B33984203D0E5
:102898006FF00403039322E06FF00F0303931EE02D
:1028A800DDF81CA05046FFF707FF6FF00403039301
:1028B80015E0154607E0A41AA4B2291958F8000033
:1028C80004F009FB013E06EB4603980008EB83037E
:1028D8005A689442EFD28CE76FF08503039304980B
:1028E80002F0EAFC03980FB0BDE8F08F6FF01B030D
:1028F8000393F4E76FF015030393F0E76FF0040315
:102908000393ECE70000AD0B08B50378012B0CD05E
:10291800022B0DD013B1084B0B6201E0074B0B6281
:1029280001F1100002F0C8FC08BD054B0B62F7E787
:10293800044B0B62F4E700BF0100AD0B0000AD0BC8
:102948000100AE0B0200AE0B38B544680569E369B7
:1029580098470021206A04F0FAFF00280DDB2B4677
:10296800084A04F10801204602F0D6F8064B9842BE
:1029780004D1204602F01AF9002038BD6FF0040097
:10298800FBE700BF112900000000AD0B70B5C36B59
:1029980003EB830C0CF1800C4FEA2C2C0388A1EB81
:1029A800031290F904E00CFB0EFE2A4C84FB0E1374
:1029B8004FEAEE7ECEEB631EA2EB6E02B0F802E0A9
:1029C80090F905100CFB01F184FB0153C917C1EB09
:1029D800631190F906300CFB03F384FB0365DB17E6
:1029E800C3EB65130CFB03F39D1184FB0565DB1733
:1029F800C3EB6513194401F5804101FB0EFE4FEA54
:102A0800AE2E0EFB02F2C17990F908300CFB03F3ED
:102A180084FB0354DB17C3EB641303EBC1131B11D3
:102A2800911301FB01F1891201FB03F302EB63032C
:102A38009B124FF47A7202FB03F30749B1EB233F71
:102A480004DB1A13002A02DA002200E0024A0263B9
:102A580070BD00BF1F85EB51A086010038B5044644
:102A680090F92700C3179D0045EA90754FEA800C3E
:102A78001CEB000C43EB050340F23C501CEB000C34
:102A880043F10003154850F82150ACFB05C005FB85
:102A980003004FEA1C4C4CEA004C0514D20312F117
:102AA8007F4263EB030312EB0C0243EB20430C4819
:102AB80050F82100A0FB0CC100FB05114FEA5C2C6B
:102AC8004CEAC15C500840EAC3705D1010EB0C0082
:102AD80045EB6121FDF73CFB606338BD60A0000059
:102AE80020A0000010B50246B1F5C87F01D94FF407
:102AF800C87192F90C3003EB830303EB830321487D
:102B080080FB0340DB17C3EBA01C92F9093003F5E7
:102B18004473B2F90A0000F5163000F2991000FB70
:102B280001F1194880FB014EC917C1EBEE0101F50F
:102B3800481180FB01E0C917C1EBA00101FB03F3B9
:102B480003EBD373581000EB0C2092F825300433B4
:102B580090FBF3F092F9263003EB831203EB420368
:102B680003F5803390FBF3F0FA3800EB00104000D7
:102B78003230064B83FB0023C017C0EB6310C0B292
:102B880010BD00BFD34D6210676666661F85EB51A6
:102B980003690D3910294FD8DFE801F009234E36B3
:102BA8004E4E4E4E4E4E4E4E4E4E4E4E490000B577
:102BB800996A234880FB01ECC917C1EB6C111160BD
:102BC800996A80FB0130CB17C3EB6013642000FBCC
:102BD800131342F2107101FB03F3536000205DF8F8
:102BE80004FBD86A1749A1FB00C080091060D86AA5
:102BF800A1FB00139B094FF47A7101FB130301FB3E
:102C080003F3536000207047186B0E49A1FB00C006
:102C180080091060186BA1FB00139B094FF47A71AF
:102C280001FB130301FB03F35360002070475B6B48
:102C380013600020506070476FF01500704700BFA8
:102C48001F85EB51D34D6210001100FB01F10648BE
:102C580080FB0130CB17C3EBA0431360034800FB94
:102C680013115160704700BF83DE1B4340420F00C1
:102C780000230A2B08D8064A32F81320824201D0D2
:102C88000133F6E7184670476FF01500704700BF2C
:102C980018A1000038B50446056988B205F086F920
:102CA80000280CDB064B53F820302B616B681D693C
:102CB800030103F0F003302223212046A84738BD42
:102CC800BC000020F0B583B0044605694668336847
:102CD8009847002851DB6B689B680DF107020F21AC
:102CE80020469847002848DB9DF80730332B4AD107
:102CF800337F13F0010F0BD0244A42F28B4111604D
:102D080044F61611516049F22D2191602049D16095
:102D180013F0020F08D06B681F6980231A461E2122
:102D28002046B847002828DB06220021684604F020
:102D380001F907238DF800306B685F6806236A463F
:102D480020212046B847002817DB104B1B682B6151
:102D58006B68DB68002223212046984700280CDB9B
:102D6800F36863B1204600F07FF8002805DB6B6844
:102D7800DB68472220212046984703B0F0BD7369DD
:102D8800002BEFD1F3E76FF01500F6E7BC00002049
:102D980094B6010010B504694368586806F0C9F98B
:102DA80018B1034B6360002010BD6FF01200FBE701
:102DB80030A10000F0B583B004461546066947689F
:102DC80003290ED012687F2A45D87368DB68397FDB
:102DD80011F0040F3DD03321D2B22046984703B0FA
:102DE800F0BD73689B680DF10702232198470028FE
:102DF800F5DB9DF80730C3F3011302219940C8B2EF
:102E08002A686B68154D05FB0233013B144AA0FB89
:102E18000202984272F1000218DBC9B2802292FBCA
:102E2800F1F203FB02F20F4BA3FB0232C2F387520B
:102E38008DF807207368DB68397F11F0040F03D021
:102E4800322120469847CAE73621FAE76FF0150085
:102E5800C5E73721C0E76FF08500C0E740420F00A3
:102E68003AA39500EFBE7D6DF0B58BB005460469B9
:102E78004668A06104F599604FF0FF32002106F022
:102E880040FA04F5896004F1480100220023CDE9E5
:102E98000623002304936FF0050203920293019323
:102EA8000094444B4FF4806206F0E6F9F06806F0AF
:102EB80040F958B9F368002B78D1706906F039F9F0
:102EC800E8B97369C3B900200BB0F0BD4FF4803185
:102ED80006F10C0005F0B5F90028F5DB327C01237A
:102EE8009340354A2262636204F11C01F06805F0E0
:102EF800B3F90028E1DAE7E76FF01200E4E74FF4EE
:102F0800803106F1140005F09CF90028DCDB327EE4
:102F180001239340294AE262236304F1280170697E
:102F280005F09AF90028CFDB6368DB68327F12F07E
:102F3800040F29D030210022284698470028C3DBF7
:102F48000222002109A803F0F5FF63685F68337F58
:102F580013F0040F1AD03221022309AA2846B847D1
:102F68000028B1DB337F13F0040F11D063681E69AA
:102F780040231A4622212846B0476368DB680822A6
:102F88002421284698479FE73421D4E73621E3E7F0
:102F980063681E6920231A4625212846B0476368BE
:102FA800DB6802222421284698478DE76FF012003B
:102FB8008AE700BFA785000027840000F58300008A
:102FC80043681A68B1F5164F6FD03AD8B1F5165F55
:102FD8006ED00AD9B1F5E14F75D024D947F612233E
:102FE80099422BD14FF4000313E0B1F5966F61D0ED
:102FF80007D9B1F5166F63D0B1F5965F10D13C4B88
:1030080007E0B1F5967F58D0B1F5167F05D14FF49A
:103018001C33C2F82435002070476FF01500704744
:103028006FF015007047B1F5615F4ED0B1F5964F5E
:1030380001D1304BEDE76FF0150070476FF01500C8
:103048007047B1F5613F42D009D9B1F5612F46D03B
:103058001FD9294B994248D14FF08053D9E7B1F590
:10306800963F37D005D9B1F5E13F0FD14FF0EB735B
:10307800CFE74DF6C02399422ED0B1F5614F02D16A
:103088004FF46B03C5E76FF0150070476FF015003C
:1030980070471A4B994225D0B1F5E12F02D14FF074
:1030A800E863B6E76FF0150070474FF41D03B0E70B
:1030B800134BAEE74FF49E23ABE74FF4A033A8E7DA
:1030C8004FF41D23A5E70F4BA3E70F4BA1E74FF0E4
:1030D8006C739EE70D4B9CE74FF4650399E74FF03F
:1030E800706396E74FF0806393E76FF015007047C1
:1030F80000B0130000A04E0040420F0090D0030023
:103108000050270000C0750000F03A0000903A0116
:10311800F8B505460E46076906F096F810B9124B41
:103128001B7883B94FF02003EFF3118483F31288DF
:10313800BFF36F8F284605F00AFB40B984F3118866
:10314800BFF36F8FEEE7284605F0DFFB04463B69C7
:103158001E7001223969284605F0FDFB84F31188A9
:10316800BFF36F8FF8BD00BFE311002038B50546E7
:103178000C4601F1180000F0A9FD0A4B98420ED147
:10318800237E43F00043C5F8A031C5F88C30227E79
:1031980001239340044AC2F80435002038BD6FF07B
:1031A8000400FBE70000AD0B0070015021F07F41E7
:1031B80000F5A870014B43F82010704700500150EB
:1031C80000F5A870014B53F82000704700500150DB
:1031D8004FF480338340024AC2F84433704700BF3B
:1031E800005001504FF480338340024AC2F84833FC
:1031F800704700BF00500150014BD3F804057047D9
:103208000050015010B5012383406FEA030C0C4AAB
:10321800D2E8EF1F01EA0C0EC2E8E4EF002CF7D168
:103228004FF4803282400748C0F80823BFF35F8F0D
:10323800BFF36F8F0B4214BF0120002010BD00BFE9
:10324800840F00200050015038B5044605F028FCD2
:1032580005464FF48033A340144AD2F8042313429E
:1032680005D10024284605F024FC204638BD01235A
:10327800A340DB430E4AD2E8EF1F01EA0300C2E88D
:10328800EC0FBCF1000FF6D149B904F150039B00D3
:103298009BB203F1502303F580331B6823B120460A
:1032A80005F0EFFB0124DDE70024DBE700500150C7
:1032B800800F002001B97047012383400D4AD2E8EE
:1032C800EFCF4CEA030CC2E8E1CF0029F7D14FF465
:1032D80080338340084AC2F80433084BD3E8AF3F31
:1032E800C34013F0010FE6D0054B4FF40012C3F8AA
:1032F8000021E0E7840F002000500150800F0020DB
:1033080000E100E02DE9F843074614461E46104642
:10331800194605F0C2FB0546154B1A68A01A1C6031
:103328005E60A5F50013B3F5400F09D3002402F041
:1033380035FE3846FFF744FFA8420ED0BDE8F883B3
:103348000C4B1B681A0A1B0615EB030842F100090F
:10335800094BC3E900890124E9E71CB13846FFF7A6
:1033680037FFEBE74FF400013846FFF71FFFF5E79B
:1033780048070020880F00205007002038B50D4B63
:103388001C68250A2406BFF35F8FFFF735FF034645
:10339800001945F10001B3F5801F0AD2064BD3E9A5
:1033A8000023904271EB030303D210F1807041F1C6
:1033B800000138BD880F002050070020F8B50646E8
:1033C80014461D461046194605F067FB0746FFF7E9
:1033D800D5FFA04271EB05031DD2201A65EB010150
:1033E800194B984271F100012BD2184B03EB0613CD
:1033F800D3E90223AB4208BFA24216D03946304671
:1034080005F05CFB394605F038FB001945F100036F
:1034180004461D4609E00123B3400D4AD2E8EF0FE8
:103428001843C2E8E10F0029F8D1084B320103EB39
:103438000616C6E9024506999950079B7360002055
:10344800F8BD6FF01500FBE7010000013807002008
:10345800800F002030B583B000231D4AC2F808351C
:10346800002B24DD1A4C0225C4F80453194B4FF4E1
:103478000012C3F8802100220121152003F064FC0A
:10348800152003F05CFC0123A3602360124A13603B
:1034980000240194114B0093114A0023204605F0A3
:1034A80048FB2846FEF758FF204603B030BD0D4ABA
:1034B80002EB03124FF0FF304FF0FF31C2E9020177
:1034C8004FF480329A400249C1F804230133C7E718
:1034D8000050015000E100E0840F00200D3300008F
:1034E800FFFF7F00380700202DE9F04782B004462F
:1034F800FFF7AAFE10B902B0BDE8F087FFF73EFF5C
:1035080082460D4605F0CCFA0646134B03EB04132E
:10351800D3E90289C24575EB09050BD2002530466F
:1035280005F0C7FA002DE6D0009742464B462046E4
:10353800A847E0E7084A230102EB0411D5584F6871
:103548000020D0504FF0FF324FF0FF33C1E9022383
:103558002046FFF747FEE2E73807002010B50E4B7C
:10356800D3F8043313F0020F0DD00B4BD3F804310A
:103578004BB1094B0022C3F80421D3F80431074AA0
:103588001368013313600024002C00DD10BD2046B1
:10359800FFF7AAFF0134F7E700500150880F002019
:1035A80010B582B0B0F1FF3F06D0012806DDB0F5B6
:1035B800000F05DA441E04E00F48F8E7002400E095
:1035C8000D4CFFF7DBFE0D4B1A685B68801AB0F5EF
:1035D800000F00D300242044411CB1F5000F00D394
:1035E80005490020521801900549009143F1000354
:1035F80005F09FFA02B010BDFFFF7F0048070020CA
:103608000D33000008B5FFF7B9FE024B1B68C01A5E
:1036180008BD00BF4807002030B400F01F0C400967
:10362800012818D00D4D0CF1800055F8204004F009
:10363800E04C41EA420141EA83039DF8082043EA4D
:1036480002239DF80C2043EA024343EA0C0345F8A1
:10365800203030BC7047024DE5E700BF002584509C
:103668000028845059B900F01F014009012804D0EE
:10367800094A01238B40D3607047084AF9E700F0F4
:103688001F014009012804D0034A01238B4093609D
:103698007047024AF9E700BF00258450002884508B
:1036A8002DE9F04105460F469046002416E003F048
:1036B8003F03C8F80C3555F8242002F01F0312F018
:1036C800200F61D1C34A012101FA03F39360334605
:1036D8000A46285805F060FA0134E4B2BC4280F08A
:1036E8007381A00055F82430C3F303261A0C222A4C
:1036F80000F26C8101A151F822F000BFB73600003A
:1037080095370000AD370000DD370000F5370000C1
:103718002538000055380000D5390000D53900009B
:10372800D5390000D53900006D3800008738000011
:10373800D5390000D5390000D5390000D539000049
:10374800D5390000D5390000D5390000D539000039
:10375800D5390000A1380000C9380000F138000050
:1037680019390000D5390000D5390000D5390000D5
:1037780041390000593900007139000089390000C9
:10378800A1390000B9390000934A9CE703F03F03D0
:10379800C8F8143533460022114655F8240005F0C0
:1037A800FBF999E703F03F03C8F8083555F82420DA
:1037B80002F01F0312F0200F0AD1864A012101FAF4
:1037C80003F3936033460A46285805F0E5F983E782
:1037D800814AF3E703F03F03C8F810353346002267
:1037E800114655F8240005F0D7F975E703F03F03B3
:1037F800C8F8083555F8242002F01F0312F0200FEE
:103808000AD1744A012101FA03F3D3603346002236
:10381800285805F0C1F95FE76F4AF3E703F03F0363
:10382800C8F80C3555F8242002F01F0312F0200FB9
:103838000AD1684A012101FA03F3D36033460A46E4
:10384800285805F0A9F947E7634AF3E703F03F036F
:10385800C8F8103533460022114655F8240005F003
:103868009BF939E703F03F03C8F8083506B906267F
:10387800334600221146285805F08EF92CE703F04C
:103888003F03C8F80C3506B9062633460022114610
:10389800285805F081F91FE703F03F03C8F86035A1
:1038A80055F82400C0F3403100F03F00FFF7DAFE7E
:1038B80033460122114655F8240005F06DF90BE74F
:1038C80003F03F03C8F8643555F82400C0F34031CD
:1038D80000F03F00FFF7C6FE33460122114655F8B7
:1038E800240005F059F9F7E603F03F03C8F86835F6
:1038F80055F82400C0F3403100F03F00FFF7B2FE56
:1039080033460122114655F8240005F045F9E3E64F
:1039180003F03F03C8F86C3555F82400C0F3403174
:1039280000F03F00FFF79EFE33460122114655F88E
:10393800240005F031F9CFE603F03F03C8F8243539
:1039480033460122002155F8240005F025F9C3E685
:1039580003F03F03C8F8283533460122002155F803
:10396800240005F019F9B7E603F03F03C8F830352D
:1039780033460122002155F8240005F00DF9ABE685
:1039880003F03F03C8F8343533460122002155F8C7
:10399800240005F001F99FE603F03F03C8F8383525
:1039A80033460122002155F8240005F0F5F893E686
:1039B80003F03F03C8F83C3533460122002155F88F
:1039C800240005F0E9F887E6002001E06FF08500A3
:1039D800BDE8F08100258450002884504FF0502322
:1039E800D3F8582502F00302024BD340024A136071
:1039F800704700BF0020A107F800002008B505F0B7
:103A080063F968B14E4BD3F8203A4BB94C4B0D22B1
:103A1800C3F8202A0122C3F81C290022C3F81C2954
:103A280000220BE002F160034FF47F0151F83310DC
:103A3800DB0003F57F035B680B6001321F2A08D89F
:103A480002F160034FF47F0151F83330B3F1FF3FC7
:103A5800E8D105F011F930B1394B2922C3F80C2708
:103A68000322C3F83C2705F0BBF840B1354B364A72
:103A7800C3F830254FF050230122C3F8582505F02C
:103A8800C3F818B1314B0022C3F84C2505F0D4F81F
:103A980068B14FF05023D3F8003413F0010F06D06B
:103AA8004FF050230022C3F81421C3F8182105F061
:103AB800D7F860B14FF05023D3F8003413F0010F5A
:103AC80005D04FF050236FF00102C3F8002405F031
:103AD800E7F818B11A4B6522C3F80C2705F008F966
:103AE80020B11A4BD3F82034002B11DB184AD2F836
:103AF8008C3043F44063C2F88C30164A1168164B78
:103B0800C3F84415D269C3F84C25FFF767FF08BD11
:103B18004FF050230322C3F8182501229A604FF072
:103B28005023D3F80431002BF9D04FF05023002252
:103B3800C3F804210122DA60C3F81825D6E700BFCC
:103B480000400050009003504400EFBE0020035096
:103B580000ED00E00080FF000060005010B5046830
:103B6800B4FA84F3C3F11F035FFA83FC002B12DB62
:103B7800012202FA03F324EA0303D0E8EF2FA2425A
:103B880004D1C0E8EE3FBEF1000FF6D1E7D181F8CD
:103B980000C0024810BD0248FCE700BF0000AD0BA2
:103BA8000200AD0B0368CB4013F0010F11D100B533
:103BB800026801238B401343D0E8EFCF944504D12A
:103BC800C0E8EE3FBEF1000FF6D1F1D102485DF832
:103BD80004FB0248704700BF0000AD0B0400AD0BAA
:103BE800054B1B792BB9044B186001221A71034845
:103BF80070470348704700BF8C0F00200000AD0BD2
:103C08000C00AD0B08B54FF05023D3F8003163B169
:103C18004FF050230020C3F80001D3F800210122FF
:103C2800C3F80823284B1B6898474FF05023D3F854
:103C38000431BBB14FF050230022C3F80421D3F85C
:103C48000421D3F8182402F00302D3F81834012A07
:103C580031D04FF050230222C3F808231A4B1B68B7
:103C6800012098474FF05023D3F8203173B14FF01B
:103C780050230022C3F82021D3F820214FF480726A
:103C8800C3F80823104B1B68042098474FF05023B3
:103C9800D3F8243173B14FF050230022C3F8242104
:103CA800D3F824214FF40072C3F80823064B1B688D
:103CB8000520984708BD4FF050230222C3F8182565
:103CC80001229A60CEE700BF8C0F002008B501469C
:103CD8000148FFF743FF08BDFC000020F0B51C4673
:103CE800059F069E00F01F0C4009012834D0274D7F
:103CF8000CF1800355F8233081B3012082B34FF0D3
:103D0800020E40EA0E0074B34FF00C0E40EA0E00AB
:103D180067B34FF4706E40EA0E0056B34FF4403E5E
:103D280040EA0E0023EA000031B30B7832B3127870
:103D38005200134324B322789200134317B33A78FE
:103D48001202134306B332781204134303430CF1EF
:103D5800800C45F82C30F0BD0D4DC9E70020CDE7AB
:103D68004FF0000ECDE74FF0000ECFE74FF0000EFA
:103D7800D1E74FF0000ED3E70023D7E70022D8E7BA
:103D88000022DAE70022DCE70022DEE70025845083
:103D98000028845000F01F02400901280AD0064973
:103DA800803251F8223003F0E04343F0020341F837
:103DB800223070470149F3E70025845000288450D9
:103DC80000B583B084468E460C4B93E8030002ABE3
:103DD80003E90300634609E002A901EB830151F8F6
:103DE800081C086A42F8040B086201330CEB0E0049
:103DF8009842F1D803B05DF804FB00BF909B000027
:103E08000830034B33F8100000F00100704700BF82
:103E1800000100200830034B33F81000C0F34010B5
:103E2800704700BF000100200830044B33F8100031
:103E380010F01C0018BF0120704700BF00010020CF
:103E48000830034B33F81000C0F34000704700BF40
:103E5800000100200830024B33F81000400B704777
:103E680000010020002204E04FF0FF3383420FD00E
:103E780001322F2A0AD802F10803064931F8133013
:103E880013F4807FF0D0C3F34323EFE7002070479B
:103E98000120704700010020002313B14FF0FF30CC
:103EA8007047074A52F83320824201D00133F4E7C1
:103EB800034A02EBC30252688A42F7D11846704798
:103EC8000001002000F108020E4B33F81230C3F352
:103ED8008203042B10D0052B10D000F01F024009DC
:103EE800012807D0084B1B69D34013F0010F07D0F6
:103EF80003207047054BF6E7032070470220704700
:103F080002207047000100200025845000288450BA
:103F18000830064B33F8100010F4807F04D0C0F34B
:103F2800432003EBC00070470020704700010020C9
:103F380070B504460D46FFF7EBFF20B106684268EE
:103F480029462046B047044B9B6823B1024AD268F1
:103F580029462046984770BD0001002070B50646E6
:103F68000C461546084605F076F860B9022D26D0AD
:103F78000221304605F047F8032C24D0022D20D02A
:103F8800032D25D070BD21463046FFF7D1FF06F03E
:103F98001F037209012A10D00F4A803352F82330C8
:103FA800C3F301439D42EDD10021304605F02BF8C3
:103FB8002946304605F027F8E4E7084AEDE70321EB
:103FC800D7E7012CDCD121463046FFF7B1FFD9E70E
:103FD800022CD7D1F7E700BF002584500028845071
:103FE80000F108020E4B33F8123013F4807F16D01C
:103FF80010B5C3F34324104623F4F853084A22F8B3
:1040080010302046FFF72EFF00B110BD04480023F2
:1040180040F8343021467430FFF7C4FDF5E77047A7
:104028000001002010B50446FFF7F4FE50B1204609
:10403800FFF710FF084B00F5A270002243F820207C
:1040480043F820202046FFF7CBFF0834034B00221B
:1040580023F8142010BD00BF00D00050000100203C
:1040680070B582B005460E461446FFF7B9FF26B371
:1040780021463046FFF710FF031E13DB104941F8B5
:10408800336001EBC302546005F1080031F81020D9
:104098005B029BB2134343F4807321F81030094844
:1040A80002B070BD0DF107010748FFF757FD054B3A
:1040B8009842F5D19DF80730E0E70248F0E700BFE5
:1040C800000100200000AD0B7401002070B582B023
:1040D8006A4602210020FFF773FE3EE0214E05F1FB
:1040E800800356F82320C2F30142FFF737FF01236C
:1040F800AB40336202AB03EB840353F8080CF8B10E
:1041080090FAA0F0B0FA80F000EB441000F1080239
:10411800154B33F81210C1F38201C50800F00706E9
:104128001DF805200123B340DB435BB213400DF8B3
:10413800053000F01F054309012BCFD00B4ECEE709
:104148000134012CD6D90A4B0022C3F87C21D3F8BC
:104158007C31684604F084FF08B10024F1E702B01E
:1041680070BD00BF00288450000100200025845045
:1041780000D0005038B5044618E094FAA4F3B3FA16
:1041880083F301229A4024EA02040A4A03F5A2733F
:1041980052F82350C5F3052552F82300C0F3014017
:1041A80004F057FF01462846FFF7C2FE002CE4D171
:1041B80038BD00BF00D000502DE9F04184B004465E
:1041C80015461E4609B30F4604F02DFF00283FD1BF
:1041D80000238DF80E308DF80F30019300933B4685
:1041E8000DF10F020DF10E012046FFF777FD394A58
:1041F80004F1080132F8113023F002039BB222F8CF
:10420800113043F0010322F81130BDB12F78D5F8F1
:1042180004802046FFF714FEE0B1B8F1000F53D137
:104228002C4A04F1080132F8113023F01C039BB228
:1042380022F8113043EA870322F81130002E47D0C4
:10424800726831682046FFF70BFF04B0BDE8F081C3
:104258002148FAE71F4A04F1080132F8113023F027
:104268002003DB04DB0C22F81130B8F1000FD7D0A3
:10427800032F2BD86B681D7847B9184B05F5A27525
:10428800002243F8252043F82520C9E7384604F0E2
:10429800E1FE0346114805F5A27150F8212022F0ED
:1042A800030240F821202246294604F074FE094AF8
:1042B80004F1080132F811306D03ADB22B4343F01D
:1042C800200322F81130ABE70348BEE70248BCE7F9
:1042D8000348BAE7000100200400AD0B00D00050ED
:1042E8000000AD0B70B584B00446154629B30E46E0
:1042F80004F0A8FE20B12046FFF78CFD00283AD133
:104308002046FFF791FD10B17378012B33D00123BC
:104318008DF80F30002301930096B31C721C0DF129
:104328000F012046FFF7DAFC204A04F1080132F8B1
:10433800113043F0030322F8113095B3204604F0FE
:1043480081FE80BB2E781A4B06F5A272002143F835
:10435800221043F82210154A04F1080132F81130EE
:1043680023F02003DB04DB0C22F811306B7823B92F
:10437800104804B070BD1048FBE7AA7800922246A6
:1043880031460B4804F020FE084A083432F814304D
:104398007603B6B2334343F0200322F814300548BD
:1043A800E7E70448E5E70448E3E700BF0001002029
:1043B80000D000500000AD0B0400AD0B014B98601D
:1043C800D96070470001002038B504460D46FFF754
:1043D80021FD40B104F10800044B33F810305B0BA9
:1043E8002B70034838BD0348FCE700BF00010020DC
:1043F8000000AD0B0400AD0B0F4B93F878300BB1F8
:104408000E48704710B50E4C60220021204602F07D
:1044180091FD0D2002F093FC0A4B0022C3F87C2189
:10442800D3F87C214FF00042C3F80423012384F819
:1044380068306366044810BD000100200500AD0B1C
:104448001001002000D000500000AD0B034B93F882
:104458007800003818BF0120704700BF0001002015
:1044680008B501460148FFF79DFB08BD7001002013
:1044780008B501460148FFF771FB08BD700100202F
:1044880038B504460D46FFF7C5FC00B3204604F0D6
:10449800D9FDE0B12046FFF7DDFC830003F580730A
:1044A8009BB203F1A04303F5504300221A601B6836
:1044B8000B4A00F5A27152F8213043F0010342F88B
:1044C80021305DB101238340C2F8043306E0204661
:1044D800FFF7F8FC0146204604F095FD38BD00BF03
:1044E80000D0005010B50446FFF794FCA0B1204658
:1044F80004F0A8FD80B12046FFF7ACFC0122824001
:10450800084BC3F8082300F5A27053F8202022F0C6
:10451800030243F8202003E00021204604F073FD45
:1045280010BD00BF00D0005010B50446FFF768FC6E
:1045380008B9064810BD2046FFF7D4FF2046FFF70C
:1045480071FD2046FFF726FC0148F3E70400AD0B98
:104558000000AD0B38B501204FF4807300210C46E4
:1045680003E0400004339BB20131072914D803F15A
:10457800A04202F550421268002AF2D00C4AD2F842
:1045880004231042EDD003F1A04202F55042002569
:10459800156012680443E4E7054BD3F87C311BB976
:1045A8002046FFF7E7FD38BDFFF790FDF8E700BFAD
:1045B80000D00050034610F0010F08D1064813F050
:1045C800020F00D0054813F0040F02D170470448C9
:1045D800F5E70448FAE700BF0100AD0B0100AE0B98
:1045E8000000AE0B0200AE0B84468B7B13B1C87B78
:1045F800002849D18A68B2F17F6F0ED30A68222A4F
:1046080006D0232A3CD14A68222A3BD10B2205E056
:1046180048682328F5D10B2200E0062210B50BBB11
:104628000B6803F01F0E5B09012B25D0174C0EF108
:10463800800E54F82E0000F0E040130243F00C0303
:10464800184344F82E004A6802F01F005209012A54
:1046580014D00E4C803054F8202002F0E04213436E
:1046680044F82030C87B30B90A684B68CCF8082574
:10467800CCF80C35012010BD054CD8E7044CE9E70F
:104688000020704700207047704700BF0025845005
:10469800002884502DE9F84305460C4616461F4667
:1046A800002380F82E30536833B1D36803F0604399
:1046B800B3F1005F40F031819C4BC4F8083395F8A2
:1046C8002F3003F0FF08002B36D117F0140F0CBF62
:1046D8000123002385F82F3005F10C0CB646BEE8FF
:1046E8000F00ACE80F00DEF80030CCF80030C7F35C
:1046F800001385F830302F627378C4F888350023AA
:10470800C4F80431D4F80421C4F82431D4F824219D
:10471800C4F86031D4F86021C4F84831D4F848317D
:104728003946204604F0F0FC3378032B00F2A880C9
:10473800DFE803F055943708AB68C4F80433DFF8B2
:10474800F09181E0336903F06043B3F1005F40F01A
:10475800E7804FF48073C4F80032F2687368C4F8D5
:104768004425C4F848350023C4F85031D4F85031F2
:1047780001232362A360D4F85031002BFBD000231F
:10478800C4F85031D4F850313269B368C4F84425BC
:10479800C4F848354FF48023AB600823DFF89491C0
:1047A80032E0F2687368C4F84425C4F848353369C0
:1047B80003F06042B2F1005F40F0B580B268C4F81F
:1047C8003435C4F838254FF48453C4F80032022332
:1047D800AB60012323620823DFF8589114E0F268E4
:1047E8007368C4F84425C4F8483517F0200F2ED054
:1047F8004FF48073C4F800324FF48023AB60012378
:1048080023620823DFF82C9117F0080F07D13278BC
:10481800032A04D00122E250736803B962612B684D
:1048280093B317F0040F01D00023AB6017F0400FCB
:1048380003D1AB6843F00203AB60AB6843F4007389
:10484800AB60AB68C4F804334846BDE8F8834FF45E
:104858000073C4F800320223AB60D0E7F2687368D3
:10486800C4F83425C4F838354FF48053C4F80032FE
:104878000223AB60012323620023DFF8B890C3E76B
:104888000823DFF8B490BFE7434600E06BBBD4F8D9
:10489800482102B10123D4F804212AB10023C4F825
:1048A8000431D4F804310123D4F82421002AEDD0AE
:1048B8000022C4F82421D4F82421D4F86021D4F8A3
:1048C800001212B111F4007F03D101232362636146
:1048D8004346002ADAD011F4807FD7D00023C4F8E9
:1048E8004831D4F848314346D0E7D4F8C404C4F872
:1048F800C404002385F82F3018B1FFF75BFE81460A
:10490800A2E717F0400F9FD12946204604F0BBFBD1
:10491800002899D1DFF8249096E7DFF8249093E7F0
:10492800DFF81C9090E7DFF818908DE702029C01F1
:104938000B00AD0B0000AD0B0400AD0B0100AD0B7F
:104948000A00AD0B30B587B004460D46D0F82431C7
:1049580043B10023C0F82431D0F82431D0F8043111
:10496800002B5FD0D4F80431002B7BD00023C4F88F
:104978000431D4F804312B6A13F0400F03D195F8B1
:104988002E30002B65D02B6A13F0040F2ED10DF1B9
:10499800040C05F10C0EBEE80F00ACE80F00DEF8C1
:1049A8000030CCF800300023C4F86031D4F860211E
:1049B800C4F85C31D4F85C3195F8303013B195F80F
:1049C8002E309BB10023C4F80032AB60504BC4F8C2
:1049D800083344F30733002B08DB03F01F015B099E
:1049E80001228A4060334B4941F82320D4F8C4346B
:1049F800C4F8C43413F0020F71D001238DF80030CD
:104A080095F830300BB985F82F302B6A13F0040F66
:104A180002D095F82E301BB12B6869686846984714
:104A280007B030BD8B68C0F8083302238B608B68F1
:104A3800C0F80433D0F8603123B1D0F8003213F451
:104A4800007F02D1012323626361012385F82E30A0
:104A5800E6E72946204604F016FB80F0010085F8B9
:104A68002E0090E70023C4F84831D4F848312B7B56
:104A78001BBB0DF1040C05F10C0EBEE80F00ACE8F1
:104A88000F00DEF80030CCF8003095F83030002BFD
:104A9800ACD1C4F80032AB601D4BC4F8083344F302
:104AA8000733002BA2DB03F01F015B0901228A40B8
:104AB8006033184941F8232098E74FF40073C4F88D
:104AC800003240F20223AB6003F1CE73C4F808331E
:104AD800AB68C4F804330123A3602362A0E713F092
:104AE800040F03D002238DF8003089E713F0010F7B
:104AF80003D003238DF8003082E795F82E301BB1E0
:104B080004238DF800307BE700238DF8003077E729
:104B180002029C0100E100E0F8B504460D46067962
:104B280007681E49342000FB061191F82D1009B1C1
:104B38001B48F8BDDFF864C006FB00F00CEB000171
:104B48004CF800204B6000238B6081F8303081F8EE
:104B58002F306B7B81F83230AB7B81F833302946BC
:104B68003846FFF741FDB0B1AB68C7F824353423A8
:104B780006FB03F3094AD35823B1206840F30730F2
:104B880002F0DDF8054B342202FB0633012283F8DC
:104B98002D200448CDE70448CBE700BF940F002040
:104BA8000500AD0B0000AD0B0400AD0B02790368E6
:104BB8000621C3F80015044B342101FB02330222FD
:104BC80083F82D20704700BF940F002001790268F8
:104BD8000B4B342000FB0133002199600948C2F8CF
:104BE8000803D2F8000220F4BC50C2F80002C2F850
:104BF8000015012283F82D2083F82F10704700BF7D
:104C0800940F002002029C0110B5134690F804C0CE
:104C18000A4601683420034C00FB0C40FFF73AFDBC
:104C280010BD00BF940F002008B502490248FFF7E5
:104C380089FE08BD940F0020009000502DE9F8432C
:104C480000F01F034009012839D0294E01259D4055
:104C5800B56001F01F084909012932D0244F4FF0EF
:104C6800010909FA08F9C7F80890803356F8232093
:104C780002F0E04240F20D610A4346F8232008F1B1
:104C8800800257F8223003F0E0430B4347F8223004
:104C9800042004F03CF80024082C14D83B6923FABB
:104CA80008F313F0010F0ED1F560042004F02FF87B
:104CB800B560042004F02BF80134E4B2ECE70D4EA3
:104CC800C4E70C4FCBE7C7F80C90042004F01FF89A
:104CD800C7F80890042004F01AF83B6923FA08F38F
:104CE80013F0010F02D00448BDE8F8830348FBE73E
:104CF80000258450002884500000AD0B0100AD0B46
:104D0800034B00E01C33034A9342FBD3704700BFB8
:104D18003C9800001C99000070B50646114B53F8EA
:104D2800204009E0404217E0EB681870EA685378C1
:104D380043F0010353700834731C0A4A52F82330B5
:104D4800A3420DD96568236828469847002DF2D0FC
:104D58000028EBD00028E5DBFF28E5DDFF20E3E7AE
:104D680070BD00BFB0A10000044A0260044B9B1A4A
:104D78009B10044803FB00F0704700BF3C980000FC
:104D88001C990000B76DDBB610B586B0104C04EB6B
:104D9800C01400EB800C00EB40000E4B03EBC0038B
:104DA80000220592012104910F21039102920192A0
:104DB8000093094B4FF4A072084901EB8C1120466F
:104DC80000F026F9637B23F00403637306B010BD7B
:104DD80058070020C80F00200D510000E8190020D6
:104DE80008B50A4B01221A700220FFF795FF01F05F
:104DF80057F90320FFF790FF00F03AF9FBF784FC1E
:104E0800034A137B23F00103137308BDE311002049
:104E1800D807002008B50146014A0248FCF79AFD68
:104E2800E94D0000D807002008B50348034A121AC4
:104E3800002104F0A5F908BD60020020E41100205B
:104E480010B50446FFF7A0FF0A4901EBC4110A4A4E
:104E580004EB440302EBC303D9601C75074B03EB57
:104E6800C42303F5006304EB440402EBC40253605B
:104E780010BD00BF58070020C80F0020E81100200F
:104E880070B586B000F06AFE104D114BDD61114B14
:104E9800059301230493002403940294019400943D
:104EA8000D4B4FF480520D49284600F0B1F80646E4
:104EB8006B7B23F004036B73284604F0F5FA204655
:104EC800FFF7BEFF304606B070BD00BFD807002010
:104ED800C80F0020C8A10000E94D0000281B0020D1
:104EE80000B5A1B01D4B03F5006282F3088883F377
:104EF8000A881B4CE02384F822300025E5772576C4
:104F08006576A57684F82050636A43F4E0236362EB
:104F180084F82350FCF762FEFCF738FC4FF0FF33AF
:104F2800A362E362FDF78CF8FCF722FF01248DF8F9
:104F38000D408DF80C4019951A951C95094BC3F82E
:104F480008D0FFF7DDFE2846FFF7E6FE2046FFF70C
:104F5800E3FEFFF795FFFFF75DFF00BFE8110020B4
:104F680000ED00E0C80F002010B5064C002000E05E
:104F78001C34054B9C4204D2204604F009F9002851
:104F8800F6DA10BD100200201002002030B583B000
:104F98000D464FF02001EFF3118C81F31288BFF317
:104FA8006F8F6146446964B12C60236843618369EB
:104FB80001338361002081F31188BFF36F8F03B041
:104FC80030BD00F1080E53EA020404D100232B601F
:104FD8006FF00B00EFE7009201930246704600F075
:104FE800C1FC0028EBD1024B9B685B692B60E6E7AC
:104FF800C80F002008B553EA020102D104F02DF9C8
:1050080008BD0249183000F03FFFF9E7E9940000B5
:10501800F0B585B004460E4615461F4600F1580304
:105028008365C3650E9B04220D9904F01AF92A467C
:105038003146204604F0FFF805460C9B02930B9B73
:1050480001930A9B00933B46024631462046FCF7F3
:1050580061FC00236365054B9B6823B11B6F2367C5
:10506800284605B0F0BD2367FAE700BFC80F002047
:1050780030B587B0214C14E0E36A0593236A0493A2
:10508800E3690393A3690293636901932369009316
:10509800E368A26861682068FFF7BAFF23685C6567
:1050A8003034174B9C42E7D300F00EFB134C00E062
:1050B8003034134B9C421CD2606AB0F1FF3FF7D0EA
:1050C800256820EAE070C117C90341EA5041C003CE
:1050D80040F2E733C0184FF47A724FF0000341F101
:1050E8000001FBF785F802460B462846FFF782FFCA
:1050F800DEE700F0E3FC07B030BD00BF100200207F
:105108001002002008B501E0FCF746FB4FF0200232
:10511800EFF3118382F31288BFF36F8F04F0F9FA6B
:10512800054B9861054B1B78002BEDD0FCF7F2F886
:105138000028EBD1E8E700BFC80F0020E3110020EA
:105148002DE9F04182B004461E464FF02003EFF3EC
:10515800118583F31288BFF36F8F2B46C16899B905
:1051680000294FD1334A926892F90E202261013109
:10517800E160304A9268A26083F31188BFF36F8FB1
:10518800002002B0BDE8F08117468068294A92687D
:105198009042E5D056EA070136D090F90E80414694
:1051A80092F90E0004F090F8804534DC4FF00008C6
:1051B80000970196224629461F4800F0D3FB002895
:1051C800DFD04FF02003EFF3118583F31288BFF38C
:1051D8006F8F2E4623689C4223D013B3216993F91D
:1051E8000E0004F071F80146204604F078F8D0B9B2
:1051F800B8F1000F17D186F31188BFF36F8F6FF0E6
:105208000A00BEE72269B1E785F31188BFF36F8F03
:105218006FF00F00B5E70146204604F060F88046BD
:10522800C6E72169E0E72946034800F037FA6FF03E
:105238000A00A6E7C80F0020F00F0020836883B398
:1052480070B504461A4A926893422DD1C368012B5F
:1052580003D9013BC360002070BD4FF02003EFF37A
:10526800118583F31288BFF36F8F016904F037F853
:10527800204604F0C5F9A06060B190F90E302361B2
:105288000024846704F010F929460A4800F006FA59
:105298002046E1E70020E06085F31188BFF36F8FB7
:1052A800DAE76FF0150070474FF0FF30D4E700BF22
:1052B800C80F0020F00F002038B504464FF0200337
:1052C800EFF3118583F31288BFF36F8F04F098F919
:1052D80040B10022826704F0E7F82946064800F04A
:1052E800DDF938BDA368E268934203D00122134474
:1052F800A360F2E70022FAE7F00F002010B582B0B1
:105308004FF02004EFF3118184F31288BFF36F8FFD
:10531800846844B1013C846081F31188BFF36F8FC6
:10532800002002B010BD53EA020406D00092019397
:105338000246054800F016FBF3E781F31188BFF336
:105348006F8F6FF00F00ECE7F00F002070B338B5E7
:105358000D4604461B4B9B6883421BD000231A460C
:10536800D4F89830C3F38001C3F3C00013F0010FE1
:105378001FD001B102B300B109B300232B60D4F8E8
:10538800843073B11D60C4F88450204603F0DBFFFD
:10539800012038BD03F058FF08B90123DFE70023D7
:1053A800DDE7C4F88450C4F88050EEE76FF01500CC
:1053B80070476FF01200ECE76FF00F00E9E76FF04D
:1053C8000F00E6E7C80F0020F8B50646C36823F0CB
:1053D8000203C360134B1D6885B12C6804B10DB17D
:1053E800002710E02C46FBE72A4639460D4803F013
:1053F80097FF05F10800FFF75FFF09E02C46EFE78C
:10540800234625461C4665B16B68B342ECD02F464F
:10541800002CF5D02368002BF3D0002CF1D12346C3
:10542800EFE7F8BDF00F002070B584B0054616E030
:10543800D5F8983023F00402C5F8982013F0040F2B
:105448005AD1002302934FF0FF324FF0FF33CDE9DA
:10545800002305F1880231462E4800F09FFC4FF0EA
:105468002003EFF3118683F31288BFF36F8F324660
:10547800D5F88040002CDBD02368C5F88030D5F8FB
:1054880084108C4235D0D5F8983043F00203C5F823
:105498009830E36843F00101E16023F0040343F02E
:1054A8000103E360636882F31188BFF36F8F2046BE
:1054B80098474FF02003EFF3118683F31288BFF368
:1054C8006F8FE36823F00103E36013F0020F1DD12F
:1054D800D5F8983023F00203C5F89830C3F30023B9
:1054E80086F31188BFF36F8F002BB8D100F05CFBF7
:1054F800B5E7C5F88430C6E705F19004002201211C
:10550800204604F0A3F80028F8D19AE72046FFF7D0
:105518005BFFDDE7F80F002008B50146014803F0FE
:1055280074FF08BD60080020F0B589B004460E9DE0
:105538000020C4F88000C4F8840004F18800C4F88E
:105548008800C4F88C0004F19000C4F89000C4F8F6
:105558009400FDB12879F8B90120C4F898004FF0FB
:10556800FF364FF0FF37CDE906670020049003931C
:105578000290019000940A4B204603F07DFE25B16D
:10558800296811B1204603F065FE204603F065FE48
:1055980009B0F0BD0120E0E740F20110DDE700BFEF
:1055A80031540000C3897F2B0ED8437B13F01F0FA3
:1055B8000CD190F90E20084B1B689A4208DB074B68
:1055C800984207D00120704700207047002070479C
:1055D8000020704700207047FC0F0020580700206B
:1055E800B3F1FF3F08BFB2F1FF3F00D1704708B5E4
:1055F8000249183000F048FC08BD00BFE9940000DB
:1056080010B5074B1C6804B910BDFDF7FBFF044437
:10561800044B1C610021024B186804F091F8F3E771
:1056280000100020C80F002070B504460E46002365
:105638004FF02002EFF3118582F31288BFF36F8FCA
:105648000EE00228B8BF02201860114B1E60114BF3
:105658009868FFF7D5FF85F31188BFF36F8F012393
:10566800A3B90C4B00221A61610CE00340F2E73346
:10567800C0184FF47A724FF0000341F10001FAF7B5
:10568800B7FD054B1860002CDBDCDEE770BD00BF02
:10569800FC0F0020C80F00200010002008B50B46A2
:1056A80059B9EFF3058242B9064AD0699268904227
:1056B80003D00846FCF7D8F803E083F31188BFF35A
:1056C8006F8F08BDC80F002000234FF02002EFF3B2
:1056D800118182F31288BFF36F8F09E0064B9A6835
:1056E800D37B013BD37381F31188BFF36F8F012301
:1056F800002BF3D0704700BFC80F002038B5044610
:10570800104803F0CAFE054670B184B90E4B9B6879
:105718005A7B12F01F0F0AD1AA6942B9DA897F2A87
:1057280005D9094AD3610BE0074BDD68EDE7064B65
:105738009B68AB4202D02846FFF762FF024BDD614F
:1057480038BD00BFE80F0020C80F002038B5054657
:10575800427B90F90D30002B0ADB6B7B63F07F03F3
:105768006B731B4B53F8204F9C4210D100240EE062
:1057780002F07F0242730146164803F078FEECE718
:1057880063686B602C601D60656017E000246CB175
:105798002146284603F047FE0028F1DC002CF6D00D
:1057A8000B4B5B6A9C42F1D02468F0E7084B5A6ABD
:1057B80003F1200129606A6015605D62044B9868F6
:1057C800A84214BF00200120FFF798FF38BD00BF92
:1057D800C80F0020E80F002038B50446074B9D6825
:1057E8006B7B13F01F0F04D02846FFF709FF2046F4
:1057F80038BD2846FFF7AAFFF6E700BFC80F00200C
:10580800F8B505464FF02003EFF3118683F31288AD
:10581800BFF36F8F154B9868154B1B68984211D0D2
:105828003446134B00221A60124B1B68B3B1FFF7C2
:10583800B9FE98B10D4B1B69AB420ADD5B1B0B4AE5
:1058480013610EE0FFF7DCFE86F31188BFF36F8F5C
:105858000BE03046FFF7C0FF044602E0034B00228E
:105868001A6184F31188BFF36F8FF8BDC80F002049
:10587800F80F002000100020427B90F90D30002B1B
:1058880033DB70B5044612F01F0F01D1866906B1EB
:1058980070BD62F07F024273144B53F8205F9D4243
:1058A80008D1354606E06B68636025601C606C6053
:1058B80017E035466DB12946204603F0B4FD0028AF
:1058C800F1DC002DF6D0094B5B6A9D42F1D02D68C2
:1058D800F0E7064B5A6A03F1200121606260146008
:1058E8005C620020FFF70AFFD2E77047C80F00206C
:1058F80010B54FF02003EFF3118483F31288BFF340
:105908006F8F437B13F0040F04D184F31188BFF326
:105918006F8F10BD23F004034373FFF7ADFF2146DB
:105928000148FFF7BBFEF4E70410002010B5044659
:10593800427B90F90D30002B08DB084B9868A04299
:1059480014BF00200120FFF7D9FE10BD02F07F022E
:1059580042730146024803F08AFDEEE7C80F0020B3
:10596800E80F002010B50C461146064B9868064B08
:105978001860DDE9022303F021FE2046FBF774FFDF
:1059880010BD00BFC80F0020F80F00202DE9F84314
:1059980005460F4600234FF02002EFF3118682F3ED
:1059A8001288BFF36F8F184629E063686B602C601C
:1059B8001D60656017E044466CB12146284603F037
:1059C80032FD0028F1DC002CF6D01D4B5B6A9C42AE
:1059D800F1D02468F0E71A4B5A6A03F120012960D4
:1059E8006A6015605D620120FFF788FE012001E012
:1059F800AF73002086F31188BFF36F8F0123E3B9DB
:105A08006B7B13F01F0FF3D1D5F81880B8F1000F96
:105A1800EED103F07F036B73DFF8289029464846E0
:105A280003F025FDAF736B7B63F07F036B73D9F8CD
:105A380000404C45C0D14446BEE7BDE8F88300BFEE
:105A4800C80F0020E80F002038B50446183003F0CE
:105A580042FE00234FF02002EFF3118582F31288F3
:105A6800BFF36F8F10E0637B43F010036373114B38
:105A78009868A04214BF00200120FFF73FFE85F37D
:105A88001188BFF36F8F012363B9627B94F90D30DE
:105A9800002BE8DA02F07F0262732146064803F021
:105AA800E6FCE0E7034B9B68A34200D038BD03F057
:105AB800D2FCFBE7C80F0020E80F002010B5002338
:105AC8004FF02002EFF3118482F31288BFF36F8F37
